{
  "_format": "hh-sol-artifact-1",
  "contractName": "LimitedNFT",
  "sourceName": "contracts/LimitedNFT.sol",
  "abi": [
    {
      "inputs": [
        {
          "internalType": "string",
          "name": "name",
          "type": "string"
        },
        {
          "internalType": "string",
          "name": "symbol",
          "type": "string"
        }
      ],
      "stateMutability": "nonpayable",
      "type": "constructor"
    },
    {
      "inputs": [
        {
          "internalType": "address",
          "name": "sender",
          "type": "address"
        },
        {
          "internalType": "uint256",
          "name": "tokenId",
          "type": "uint256"
        },
        {
          "internalType": "address",
          "name": "owner",
          "type": "address"
        }
      ],
      "name": "ERC721IncorrectOwner",
      "type": "error"
    },
    {
      "inputs": [
        {
          "internalType": "address",
          "name": "operator",
          "type": "address"
        },
        {
          "internalType": "uint256",
          "name": "tokenId",
          "type": "uint256"
        }
      ],
      "name": "ERC721InsufficientApproval",
      "type": "error"
    },
    {
      "inputs": [
        {
          "internalType": "address",
          "name": "approver",
          "type": "address"
        }
      ],
      "name": "ERC721InvalidApprover",
      "type": "error"
    },
    {
      "inputs": [
        {
          "internalType": "address",
          "name": "operator",
          "type": "address"
        }
      ],
      "name": "ERC721InvalidOperator",
      "type": "error"
    },
    {
      "inputs": [
        {
          "internalType": "address",
          "name": "owner",
          "type": "address"
        }
      ],
      "name": "ERC721InvalidOwner",
      "type": "error"
    },
    {
      "inputs": [
        {
          "internalType": "address",
          "name": "receiver",
          "type": "address"
        }
      ],
      "name": "ERC721InvalidReceiver",
      "type": "error"
    },
    {
      "inputs": [
        {
          "internalType": "address",
          "name": "sender",
          "type": "address"
        }
      ],
      "name": "ERC721InvalidSender",
      "type": "error"
    },
    {
      "inputs": [
        {
          "internalType": "uint256",
          "name": "tokenId",
          "type": "uint256"
        }
      ],
      "name": "ERC721NonexistentToken",
      "type": "error"
    },
    {
      "inputs": [
        {
          "internalType": "address",
          "name": "owner",
          "type": "address"
        }
      ],
      "name": "OwnableInvalidOwner",
      "type": "error"
    },
    {
      "inputs": [
        {
          "internalType": "address",
          "name": "account",
          "type": "address"
        }
      ],
      "name": "OwnableUnauthorizedAccount",
      "type": "error"
    },
    {
      "anonymous": false,
      "inputs": [
        {
          "indexed": true,
          "internalType": "address",
          "name": "owner",
          "type": "address"
        },
        {
          "indexed": true,
          "internalType": "address",
          "name": "approved",
          "type": "address"
        },
        {
          "indexed": true,
          "internalType": "uint256",
          "name": "tokenId",
          "type": "uint256"
        }
      ],
      "name": "Approval",
      "type": "event"
    },
    {
      "anonymous": false,
      "inputs": [
        {
          "indexed": true,
          "internalType": "address",
          "name": "owner",
          "type": "address"
        },
        {
          "indexed": true,
          "internalType": "address",
          "name": "operator",
          "type": "address"
        },
        {
          "indexed": false,
          "internalType": "bool",
          "name": "approved",
          "type": "bool"
        }
      ],
      "name": "ApprovalForAll",
      "type": "event"
    },
    {
      "anonymous": false,
      "inputs": [
        {
          "indexed": false,
          "internalType": "uint256",
          "name": "_fromTokenId",
          "type": "uint256"
        },
        {
          "indexed": false,
          "internalType": "uint256",
          "name": "_toTokenId",
          "type": "uint256"
        }
      ],
      "name": "BatchMetadataUpdate",
      "type": "event"
    },
    {
      "anonymous": false,
      "inputs": [
        {
          "indexed": false,
          "internalType": "uint256",
          "name": "_tokenId",
          "type": "uint256"
        }
      ],
      "name": "MetadataUpdate",
      "type": "event"
    },
    {
      "anonymous": false,
      "inputs": [
        {
          "indexed": true,
          "internalType": "address",
          "name": "previousOwner",
          "type": "address"
        },
        {
          "indexed": true,
          "internalType": "address",
          "name": "newOwner",
          "type": "address"
        }
      ],
      "name": "OwnershipTransferred",
      "type": "event"
    },
    {
      "anonymous": false,
      "inputs": [
        {
          "indexed": true,
          "internalType": "address",
          "name": "from",
          "type": "address"
        },
        {
          "indexed": true,
          "internalType": "address",
          "name": "to",
          "type": "address"
        },
        {
          "indexed": true,
          "internalType": "uint256",
          "name": "tokenId",
          "type": "uint256"
        }
      ],
      "name": "Transfer",
      "type": "event"
    },
    {
      "inputs": [],
      "name": "MAX_SUPPLY",
      "outputs": [
        {
          "internalType": "uint256",
          "name": "",
          "type": "uint256"
        }
      ],
      "stateMutability": "view",
      "type": "function"
    },
    {
      "inputs": [
        {
          "internalType": "address",
          "name": "to",
          "type": "address"
        },
        {
          "internalType": "uint256",
          "name": "tokenId",
          "type": "uint256"
        }
      ],
      "name": "approve",
      "outputs": [],
      "stateMutability": "nonpayable",
      "type": "function"
    },
    {
      "inputs": [
        {
          "internalType": "address",
          "name": "owner",
          "type": "address"
        }
      ],
      "name": "balanceOf",
      "outputs": [
        {
          "internalType": "uint256",
          "name": "",
          "type": "uint256"
        }
      ],
      "stateMutability": "view",
      "type": "function"
    },
    {
      "inputs": [
        {
          "internalType": "uint256",
          "name": "tokenId",
          "type": "uint256"
        }
      ],
      "name": "getApproved",
      "outputs": [
        {
          "internalType": "address",
          "name": "",
          "type": "address"
        }
      ],
      "stateMutability": "view",
      "type": "function"
    },
    {
      "inputs": [
        {
          "internalType": "address",
          "name": "owner",
          "type": "address"
        },
        {
          "internalType": "address",
          "name": "operator",
          "type": "address"
        }
      ],
      "name": "isApprovedForAll",
      "outputs": [
        {
          "internalType": "bool",
          "name": "",
          "type": "bool"
        }
      ],
      "stateMutability": "view",
      "type": "function"
    },
    {
      "inputs": [
        {
          "internalType": "address",
          "name": "recipient",
          "type": "address"
        },
        {
          "internalType": "string",
          "name": "tokenURI",
          "type": "string"
        }
      ],
      "name": "mintNFT",
      "outputs": [
        {
          "internalType": "uint256",
          "name": "",
          "type": "uint256"
        }
      ],
      "stateMutability": "nonpayable",
      "type": "function"
    },
    {
      "inputs": [],
      "name": "name",
      "outputs": [
        {
          "internalType": "string",
          "name": "",
          "type": "string"
        }
      ],
      "stateMutability": "view",
      "type": "function"
    },
    {
      "inputs": [],
      "name": "owner",
      "outputs": [
        {
          "internalType": "address",
          "name": "",
          "type": "address"
        }
      ],
      "stateMutability": "view",
      "type": "function"
    },
    {
      "inputs": [
        {
          "internalType": "uint256",
          "name": "tokenId",
          "type": "uint256"
        }
      ],
      "name": "ownerOf",
      "outputs": [
        {
          "internalType": "address",
          "name": "",
          "type": "address"
        }
      ],
      "stateMutability": "view",
      "type": "function"
    },
    {
      "inputs": [],
      "name": "renounceOwnership",
      "outputs": [],
      "stateMutability": "nonpayable",
      "type": "function"
    },
    {
      "inputs": [
        {
          "internalType": "address",
          "name": "from",
          "type": "address"
        },
        {
          "internalType": "address",
          "name": "to",
          "type": "address"
        },
        {
          "internalType": "uint256",
          "name": "tokenId",
          "type": "uint256"
        }
      ],
      "name": "safeTransferFrom",
      "outputs": [],
      "stateMutability": "nonpayable",
      "type": "function"
    },
    {
      "inputs": [
        {
          "internalType": "address",
          "name": "from",
          "type": "address"
        },
        {
          "internalType": "address",
          "name": "to",
          "type": "address"
        },
        {
          "internalType": "uint256",
          "name": "tokenId",
          "type": "uint256"
        },
        {
          "internalType": "bytes",
          "name": "data",
          "type": "bytes"
        }
      ],
      "name": "safeTransferFrom",
      "outputs": [],
      "stateMutability": "nonpayable",
      "type": "function"
    },
    {
      "inputs": [
        {
          "internalType": "address",
          "name": "operator",
          "type": "address"
        },
        {
          "internalType": "bool",
          "name": "approved",
          "type": "bool"
        }
      ],
      "name": "setApprovalForAll",
      "outputs": [],
      "stateMutability": "nonpayable",
      "type": "function"
    },
    {
      "inputs": [
        {
          "internalType": "bytes4",
          "name": "interfaceId",
          "type": "bytes4"
        }
      ],
      "name": "supportsInterface",
      "outputs": [
        {
          "internalType": "bool",
          "name": "",
          "type": "bool"
        }
      ],
      "stateMutability": "view",
      "type": "function"
    },
    {
      "inputs": [],
      "name": "symbol",
      "outputs": [
        {
          "internalType": "string",
          "name": "",
          "type": "string"
        }
      ],
      "stateMutability": "view",
      "type": "function"
    },
    {
      "inputs": [],
      "name": "tokenCounter",
      "outputs": [
        {
          "internalType": "uint256",
          "name": "",
          "type": "uint256"
        }
      ],
      "stateMutability": "view",
      "type": "function"
    },
    {
      "inputs": [
        {
          "internalType": "uint256",
          "name": "tokenId",
          "type": "uint256"
        }
      ],
      "name": "tokenURI",
      "outputs": [
        {
          "internalType": "string",
          "name": "",
          "type": "string"
        }
      ],
      "stateMutability": "view",
      "type": "function"
    },
    {
      "inputs": [
        {
          "internalType": "address",
          "name": "from",
          "type": "address"
        },
        {
          "internalType": "address",
          "name": "to",
          "type": "address"
        },
        {
          "internalType": "uint256",
          "name": "tokenId",
          "type": "uint256"
        }
      ],
      "name": "transferFrom",
      "outputs": [],
      "stateMutability": "nonpayable",
      "type": "function"
    },
    {
      "inputs": [
        {
          "internalType": "address",
          "name": "newOwner",
          "type": "address"
        }
      ],
      "name": "transferOwnership",
      "outputs": [],
      "stateMutability": "nonpayable",
      "type": "function"
    }
  ],
  "bytecode": "0x608060405234801561001057600080fd5b50604051612e78380380612e7883398181016040528101906100329190610323565b338282816000908161004491906105bc565b50806001908161005491906105bc565b505050600073ffffffffffffffffffffffffffffffffffffffff168173ffffffffffffffffffffffffffffffffffffffff16036100c95760006040517f1e4fbdf70000000000000000000000000000000000000000000000000000000081526004016100c091906106cf565b60405180910390fd5b6100d8816100e860201b60201c565b50600060088190555050506106ea565b6000600760009054906101000a900473ffffffffffffffffffffffffffffffffffffffff16905081600760006101000a81548173ffffffffffffffffffffffffffffffffffffffff021916908373ffffffffffffffffffffffffffffffffffffffff1602179055508173ffffffffffffffffffffffffffffffffffffffff168173ffffffffffffffffffffffffffffffffffffffff167f8be0079c531659141344cd1fd0a4f28419497f9722a3daafe3b4186f6b6457e060405160405180910390a35050565b6000604051905090565b600080fd5b600080fd5b600080fd5b600080fd5b6000601f19601f8301169050919050565b7f4e487b7100000000000000000000000000000000000000000000000000000000600052604160045260246000fd5b610215826101cc565b810181811067ffffffffffffffff82111715610234576102336101dd565b5b80604052505050565b60006102476101ae565b9050610253828261020c565b919050565b600067ffffffffffffffff821115610273576102726101dd565b5b61027c826101cc565b9050602081019050919050565b60005b838110156102a757808201518184015260208101905061028c565b60008484015250505050565b60006102c66102c184610258565b61023d565b9050828152602081018484840111156102e2576102e16101c7565b5b6102ed848285610289565b509392505050565b600082601f83011261030a576103096101c2565b5b815161031a8482602086016102b3565b91505092915050565b6000806040838503121561033a576103396101b8565b5b600083015167ffffffffffffffff811115610358576103576101bd565b5b610364858286016102f5565b925050602083015167ffffffffffffffff811115610385576103846101bd565b5b610391858286016102f5565b9150509250929050565b600081519050919050565b7f4e487b7100000000000000000000000000000000000000000000000000000000600052602260045260246000fd5b600060028204905060018216806103ed57607f821691505b602082108103610400576103ff6103a6565b5b50919050565b60008190508160005260206000209050919050565b60006020601f8301049050919050565b600082821b905092915050565b6000600883026104687fffffffffffffffffffffffffffffffffffffffffffffffffffffffffffffffff8261042b565b610472868361042b565b95508019841693508086168417925050509392505050565b6000819050919050565b6000819050919050565b60006104b96104b46104af8461048a565b610494565b61048a565b9050919050565b6000819050919050565b6104d38361049e565b6104e76104df826104c0565b848454610438565b825550505050565b600090565b6104fc6104ef565b6105078184846104ca565b505050565b5b8181101561052b576105206000826104f4565b60018101905061050d565b5050565b601f8211156105705761054181610406565b61054a8461041b565b81016020851015610559578190505b61056d6105658561041b565b83018261050c565b50505b505050565b600082821c905092915050565b600061059360001984600802610575565b1980831691505092915050565b60006105ac8383610582565b9150826002028217905092915050565b6105c58261039b565b67ffffffffffffffff8111156105de576105dd6101dd565b5b6105e882546103d5565b6105f382828561052f565b600060209050601f8311600181146106265760008415610614578287015190505b61061e85826105a0565b865550610686565b601f19841661063486610406565b60005b8281101561065c57848901518255600182019150602085019450602081019050610637565b868310156106795784890151610675601f891682610582565b8355505b6001600288020188555050505b505050505050565b600073ffffffffffffffffffffffffffffffffffffffff82169050919050565b60006106b98261068e565b9050919050565b6106c9816106ae565b82525050565b60006020820190506106e460008301846106c0565b92915050565b61277f806106f96000396000f3fe608060405234801561001057600080fd5b50600436106101215760003560e01c8063715018a6116100ad578063c87b56dd11610071578063c87b56dd146102f4578063d082e38114610324578063e985e9c514610342578063eacabe1414610372578063f2fde38b146103a257610121565b8063715018a6146102765780638da5cb5b1461028057806395d89b411461029e578063a22cb465146102bc578063b88d4fde146102d857610121565b806323b872dd116100f457806323b872dd146101c057806332cb6b0c146101dc57806342842e0e146101fa5780636352211e1461021657806370a082311461024657610121565b806301ffc9a71461012657806306fdde0314610156578063081812fc14610174578063095ea7b3146101a4575b600080fd5b610140600480360381019061013b9190611b7f565b6103be565b60405161014d9190611bc7565b60405180910390f35b61015e61041f565b60405161016b9190611c72565b60405180910390f35b61018e60048036038101906101899190611cca565b6104b1565b60405161019b9190611d38565b60405180910390f35b6101be60048036038101906101b99190611d7f565b6104cd565b005b6101da60048036038101906101d59190611dbf565b6104e3565b005b6101e46105e5565b6040516101f19190611e21565b60405180910390f35b610214600480360381019061020f9190611dbf565b6105ea565b005b610230600480360381019061022b9190611cca565b61060a565b60405161023d9190611d38565b60405180910390f35b610260600480360381019061025b9190611e3c565b61061c565b60405161026d9190611e21565b60405180910390f35b61027e6106d6565b005b6102886106ea565b6040516102959190611d38565b60405180910390f35b6102a6610714565b6040516102b39190611c72565b60405180910390f35b6102d660048036038101906102d19190611e95565b6107a6565b005b6102f260048036038101906102ed919061200a565b6107bc565b005b61030e60048036038101906103099190611cca565b6107e1565b60405161031b9190611c72565b60405180910390f35b61032c6108f4565b6040516103399190611e21565b60405180910390f35b61035c6004803603810190610357919061208d565b6108fa565b6040516103699190611bc7565b60405180910390f35b61038c6004803603810190610387919061216e565b61098e565b6040516103999190611e21565b60405180910390f35b6103bc60048036038101906103b79190611e3c565b610a1c565b005b6000634906490660e01b7bffffffffffffffffffffffffffffffffffffffffffffffffffffffff1916827bffffffffffffffffffffffffffffffffffffffffffffffffffffffff19161480610418575061041782610aa2565b5b9050919050565b60606000805461042e906121f9565b80601f016020809104026020016040519081016040528092919081815260200182805461045a906121f9565b80156104a75780601f1061047c576101008083540402835291602001916104a7565b820191906000526020600020905b81548152906001019060200180831161048a57829003601f168201915b5050505050905090565b60006104bc82610b84565b506104c682610c0c565b9050919050565b6104df82826104da610c49565b610c51565b5050565b600073ffffffffffffffffffffffffffffffffffffffff168273ffffffffffffffffffffffffffffffffffffffff16036105555760006040517f64a0ae9200000000000000000000000000000000000000000000000000000000815260040161054c9190611d38565b60405180910390fd5b60006105698383610564610c49565b610c63565b90508373ffffffffffffffffffffffffffffffffffffffff168173ffffffffffffffffffffffffffffffffffffffff16146105df578382826040517f64283d7b0000000000000000000000000000000000000000000000000000000081526004016105d69392919061222a565b60405180910390fd5b50505050565b606481565b610605838383604051806020016040528060008152506107bc565b505050565b600061061582610b84565b9050919050565b60008073ffffffffffffffffffffffffffffffffffffffff168273ffffffffffffffffffffffffffffffffffffffff160361068f5760006040517f89c62b640000000000000000000000000000000000000000000000000000000081526004016106869190611d38565b60405180910390fd5b600360008373ffffffffffffffffffffffffffffffffffffffff1673ffffffffffffffffffffffffffffffffffffffff168152602001908152602001600020549050919050565b6106de610e7d565b6106e86000610f04565b565b6000600760009054906101000a900473ffffffffffffffffffffffffffffffffffffffff16905090565b606060018054610723906121f9565b80601f016020809104026020016040519081016040528092919081815260200182805461074f906121f9565b801561079c5780601f106107715761010080835404028352916020019161079c565b820191906000526020600020905b81548152906001019060200180831161077f57829003601f168201915b5050505050905090565b6107b86107b1610c49565b8383610fca565b5050565b6107c78484846104e3565b6107db6107d2610c49565b85858585611139565b50505050565b60606107ec82610b84565b50600060066000848152602001908152602001600020805461080d906121f9565b80601f0160208091040260200160405190810160405280929190818152602001828054610839906121f9565b80156108865780601f1061085b57610100808354040283529160200191610886565b820191906000526020600020905b81548152906001019060200180831161086957829003601f168201915b5050505050905060006108976112ea565b905060008151036108ac5781925050506108ef565b6000825111156108e15780826040516020016108c992919061229d565b604051602081830303815290604052925050506108ef565b6108ea84611301565b925050505b919050565b60085481565b6000600560008473ffffffffffffffffffffffffffffffffffffffff1673ffffffffffffffffffffffffffffffffffffffff16815260200190815260200160002060008373ffffffffffffffffffffffffffffffffffffffff1673ffffffffffffffffffffffffffffffffffffffff16815260200190815260200160002060009054906101000a900460ff16905092915050565b6000610998610e7d565b6064600854106109dd576040517f08c379a00000000000000000000000000000000000000000000000000000000081526004016109d49061230d565b60405180910390fd5b600060085490506109ee848261136a565b6109f88184611388565b600160086000828254610a0b919061235c565b925050819055508091505092915050565b610a24610e7d565b600073ffffffffffffffffffffffffffffffffffffffff168173ffffffffffffffffffffffffffffffffffffffff1603610a965760006040517f1e4fbdf7000000000000000000000000000000000000000000000000000000008152600401610a8d9190611d38565b60405180910390fd5b610a9f81610f04565b50565b60007f80ac58cd000000000000000000000000000000000000000000000000000000007bffffffffffffffffffffffffffffffffffffffffffffffffffffffff1916827bffffffffffffffffffffffffffffffffffffffffffffffffffffffff19161480610b6d57507f5b5e139f000000000000000000000000000000000000000000000000000000007bffffffffffffffffffffffffffffffffffffffffffffffffffffffff1916827bffffffffffffffffffffffffffffffffffffffffffffffffffffffff1916145b80610b7d5750610b7c826113e4565b5b9050919050565b600080610b908361144e565b9050600073ffffffffffffffffffffffffffffffffffffffff168173ffffffffffffffffffffffffffffffffffffffff1603610c0357826040517f7e273289000000000000000000000000000000000000000000000000000000008152600401610bfa9190611e21565b60405180910390fd5b80915050919050565b60006004600083815260200190815260200160002060009054906101000a900473ffffffffffffffffffffffffffffffffffffffff169050919050565b600033905090565b610c5e838383600161148b565b505050565b600080610c6f8461144e565b9050600073ffffffffffffffffffffffffffffffffffffffff168373ffffffffffffffffffffffffffffffffffffffff1614610cb157610cb0818486611650565b5b600073ffffffffffffffffffffffffffffffffffffffff168173ffffffffffffffffffffffffffffffffffffffff1614610d4257610cf360008560008061148b565b6001600360008373ffffffffffffffffffffffffffffffffffffffff1673ffffffffffffffffffffffffffffffffffffffff168152602001908152602001600020600082825403925050819055505b600073ffffffffffffffffffffffffffffffffffffffff168573ffffffffffffffffffffffffffffffffffffffff1614610dc5576001600360008773ffffffffffffffffffffffffffffffffffffffff1673ffffffffffffffffffffffffffffffffffffffff168152602001908152602001600020600082825401925050819055505b846002600086815260200190815260200160002060006101000a81548173ffffffffffffffffffffffffffffffffffffffff021916908373ffffffffffffffffffffffffffffffffffffffff160217905550838573ffffffffffffffffffffffffffffffffffffffff168273ffffffffffffffffffffffffffffffffffffffff167fddf252ad1be2c89b69c2b068fc378daa952ba7f163c4a11628f55a4df523b3ef60405160405180910390a4809150509392505050565b610e85610c49565b73ffffffffffffffffffffffffffffffffffffffff16610ea36106ea565b73ffffffffffffffffffffffffffffffffffffffff1614610f0257610ec6610c49565b6040517f118cdaa7000000000000000000000000000000000000000000000000000000008152600401610ef99190611d38565b60405180910390fd5b565b6000600760009054906101000a900473ffffffffffffffffffffffffffffffffffffffff16905081600760006101000a81548173ffffffffffffffffffffffffffffffffffffffff021916908373ffffffffffffffffffffffffffffffffffffffff1602179055508173ffffffffffffffffffffffffffffffffffffffff168173ffffffffffffffffffffffffffffffffffffffff167f8be0079c531659141344cd1fd0a4f28419497f9722a3daafe3b4186f6b6457e060405160405180910390a35050565b600073ffffffffffffffffffffffffffffffffffffffff168273ffffffffffffffffffffffffffffffffffffffff160361103b57816040517f5b08ba180000000000000000000000000000000000000000000000000000000081526004016110329190611d38565b60405180910390fd5b80600560008573ffffffffffffffffffffffffffffffffffffffff1673ffffffffffffffffffffffffffffffffffffffff16815260200190815260200160002060008473ffffffffffffffffffffffffffffffffffffffff1673ffffffffffffffffffffffffffffffffffffffff16815260200190815260200160002060006101000a81548160ff0219169083151502179055508173ffffffffffffffffffffffffffffffffffffffff168373ffffffffffffffffffffffffffffffffffffffff167f17307eab39ab6107e8899845ad3d59bd9653f200f220920489ca2b5937696c318360405161112c9190611bc7565b60405180910390a3505050565b60008373ffffffffffffffffffffffffffffffffffffffff163b11156112e3578273ffffffffffffffffffffffffffffffffffffffff1663150b7a02868685856040518563ffffffff1660e01b815260040161119894939291906123e5565b6020604051808303816000875af19250505080156111d457506040513d601f19601f820116820180604052508101906111d19190612446565b60015b611258573d8060008114611204576040519150601f19603f3d011682016040523d82523d6000602084013e611209565b606091505b50600081510361125057836040517f64a0ae920000000000000000000000000000000000000000000000000000000081526004016112479190611d38565b60405180910390fd5b805181602001fd5b63150b7a0260e01b7bffffffffffffffffffffffffffffffffffffffffffffffffffffffff1916817bffffffffffffffffffffffffffffffffffffffffffffffffffffffff1916146112e157836040517f64a0ae920000000000000000000000000000000000000000000000000000000081526004016112d89190611d38565b60405180910390fd5b505b5050505050565b606060405180602001604052806000815250905090565b606061130c82610b84565b5060006113176112ea565b905060008151116113375760405180602001604052806000815250611362565b8061134184611714565b60405160200161135292919061229d565b6040516020818303038152906040525b915050919050565b6113848282604051806020016040528060008152506117e2565b5050565b806006600084815260200190815260200160002090816113a8919061261f565b507ff8e1a15aba9398e019f0b49df1a4fde98ee17ae345cb5f6b5e2c27f5033e8ce7826040516113d89190611e21565b60405180910390a15050565b60007f01ffc9a7000000000000000000000000000000000000000000000000000000007bffffffffffffffffffffffffffffffffffffffffffffffffffffffff1916827bffffffffffffffffffffffffffffffffffffffffffffffffffffffff1916149050919050565b60006002600083815260200190815260200160002060009054906101000a900473ffffffffffffffffffffffffffffffffffffffff169050919050565b80806114c45750600073ffffffffffffffffffffffffffffffffffffffff168273ffffffffffffffffffffffffffffffffffffffff1614155b156115f85760006114d484610b84565b9050600073ffffffffffffffffffffffffffffffffffffffff168373ffffffffffffffffffffffffffffffffffffffff161415801561153f57508273ffffffffffffffffffffffffffffffffffffffff168173ffffffffffffffffffffffffffffffffffffffff1614155b8015611552575061155081846108fa565b155b1561159457826040517fa9fbf51f00000000000000000000000000000000000000000000000000000000815260040161158b9190611d38565b60405180910390fd5b81156115f657838573ffffffffffffffffffffffffffffffffffffffff168273ffffffffffffffffffffffffffffffffffffffff167f8c5be1e5ebec7d5bd14f71427d1e84f3dd0314c0f7b2291e5b200ac8c7c3b92560405160405180910390a45b505b836004600085815260200190815260200160002060006101000a81548173ffffffffffffffffffffffffffffffffffffffff021916908373ffffffffffffffffffffffffffffffffffffffff16021790555050505050565b61165b838383611806565b61170f57600073ffffffffffffffffffffffffffffffffffffffff168373ffffffffffffffffffffffffffffffffffffffff16036116d057806040517f7e2732890000000000000000000000000000000000000000000000000000000081526004016116c79190611e21565b60405180910390fd5b81816040517f177e802f0000000000000000000000000000000000000000000000000000000081526004016117069291906126f1565b60405180910390fd5b505050565b606060006001611723846118c7565b01905060008167ffffffffffffffff81111561174257611741611edf565b5b6040519080825280601f01601f1916602001820160405280156117745781602001600182028036833780820191505090505b509050600082602001820190505b6001156117d7578080600190039150507f3031323334353637383961626364656600000000000000000000000000000000600a86061a8153600a85816117cb576117ca61271a565b5b04945060008503611782575b819350505050919050565b6117ec8383611a1a565b6118016117f7610c49565b6000858585611139565b505050565b60008073ffffffffffffffffffffffffffffffffffffffff168373ffffffffffffffffffffffffffffffffffffffff16141580156118be57508273ffffffffffffffffffffffffffffffffffffffff168473ffffffffffffffffffffffffffffffffffffffff16148061187f575061187e84846108fa565b5b806118bd57508273ffffffffffffffffffffffffffffffffffffffff166118a583610c0c565b73ffffffffffffffffffffffffffffffffffffffff16145b5b90509392505050565b600080600090507a184f03e93ff9f4daa797ed6e38ed64bf6a1f0100000000000000008310611925577a184f03e93ff9f4daa797ed6e38ed64bf6a1f010000000000000000838161191b5761191a61271a565b5b0492506040810190505b6d04ee2d6d415b85acef81000000008310611962576d04ee2d6d415b85acef810000000083816119585761195761271a565b5b0492506020810190505b662386f26fc10000831061199157662386f26fc1000083816119875761198661271a565b5b0492506010810190505b6305f5e10083106119ba576305f5e10083816119b0576119af61271a565b5b0492506008810190505b61271083106119df5761271083816119d5576119d461271a565b5b0492506004810190505b60648310611a0257606483816119f8576119f761271a565b5b0492506002810190505b600a8310611a11576001810190505b80915050919050565b600073ffffffffffffffffffffffffffffffffffffffff168273ffffffffffffffffffffffffffffffffffffffff1603611a8c5760006040517f64a0ae92000000000000000000000000000000000000000000000000000000008152600401611a839190611d38565b60405180910390fd5b6000611a9a83836000610c63565b9050600073ffffffffffffffffffffffffffffffffffffffff168173ffffffffffffffffffffffffffffffffffffffff1614611b0e5760006040517f73c6ac6e000000000000000000000000000000000000000000000000000000008152600401611b059190611d38565b60405180910390fd5b505050565b6000604051905090565b600080fd5b600080fd5b60007fffffffff0000000000000000000000000000000000000000000000000000000082169050919050565b611b5c81611b27565b8114611b6757600080fd5b50565b600081359050611b7981611b53565b92915050565b600060208284031215611b9557611b94611b1d565b5b6000611ba384828501611b6a565b91505092915050565b60008115159050919050565b611bc181611bac565b82525050565b6000602082019050611bdc6000830184611bb8565b92915050565b600081519050919050565b600082825260208201905092915050565b60005b83811015611c1c578082015181840152602081019050611c01565b60008484015250505050565b6000601f19601f8301169050919050565b6000611c4482611be2565b611c4e8185611bed565b9350611c5e818560208601611bfe565b611c6781611c28565b840191505092915050565b60006020820190508181036000830152611c8c8184611c39565b905092915050565b6000819050919050565b611ca781611c94565b8114611cb257600080fd5b50565b600081359050611cc481611c9e565b92915050565b600060208284031215611ce057611cdf611b1d565b5b6000611cee84828501611cb5565b91505092915050565b600073ffffffffffffffffffffffffffffffffffffffff82169050919050565b6000611d2282611cf7565b9050919050565b611d3281611d17565b82525050565b6000602082019050611d4d6000830184611d29565b92915050565b611d5c81611d17565b8114611d6757600080fd5b50565b600081359050611d7981611d53565b92915050565b60008060408385031215611d9657611d95611b1d565b5b6000611da485828601611d6a565b9250506020611db585828601611cb5565b9150509250929050565b600080600060608486031215611dd857611dd7611b1d565b5b6000611de686828701611d6a565b9350506020611df786828701611d6a565b9250506040611e0886828701611cb5565b9150509250925092565b611e1b81611c94565b82525050565b6000602082019050611e366000830184611e12565b92915050565b600060208284031215611e5257611e51611b1d565b5b6000611e6084828501611d6a565b91505092915050565b611e7281611bac565b8114611e7d57600080fd5b50565b600081359050611e8f81611e69565b92915050565b60008060408385031215611eac57611eab611b1d565b5b6000611eba85828601611d6a565b9250506020611ecb85828601611e80565b9150509250929050565b600080fd5b600080fd5b7f4e487b7100000000000000000000000000000000000000000000000000000000600052604160045260246000fd5b611f1782611c28565b810181811067ffffffffffffffff82111715611f3657611f35611edf565b5b80604052505050565b6000611f49611b13565b9050611f558282611f0e565b919050565b600067ffffffffffffffff821115611f7557611f74611edf565b5b611f7e82611c28565b9050602081019050919050565b82818337600083830152505050565b6000611fad611fa884611f5a565b611f3f565b905082815260208101848484011115611fc957611fc8611eda565b5b611fd4848285611f8b565b509392505050565b600082601f830112611ff157611ff0611ed5565b5b8135612001848260208601611f9a565b91505092915050565b6000806000806080858703121561202457612023611b1d565b5b600061203287828801611d6a565b945050602061204387828801611d6a565b935050604061205487828801611cb5565b925050606085013567ffffffffffffffff81111561207557612074611b22565b5b61208187828801611fdc565b91505092959194509250565b600080604083850312156120a4576120a3611b1d565b5b60006120b285828601611d6a565b92505060206120c385828601611d6a565b9150509250929050565b600067ffffffffffffffff8211156120e8576120e7611edf565b5b6120f182611c28565b9050602081019050919050565b600061211161210c846120cd565b611f3f565b90508281526020810184848401111561212d5761212c611eda565b5b612138848285611f8b565b509392505050565b600082601f83011261215557612154611ed5565b5b81356121658482602086016120fe565b91505092915050565b6000806040838503121561218557612184611b1d565b5b600061219385828601611d6a565b925050602083013567ffffffffffffffff8111156121b4576121b3611b22565b5b6121c085828601612140565b9150509250929050565b7f4e487b7100000000000000000000000000000000000000000000000000000000600052602260045260246000fd5b6000600282049050600182168061221157607f821691505b602082108103612224576122236121ca565b5b50919050565b600060608201905061223f6000830186611d29565b61224c6020830185611e12565b6122596040830184611d29565b949350505050565b600081905092915050565b600061227782611be2565b6122818185612261565b9350612291818560208601611bfe565b80840191505092915050565b60006122a9828561226c565b91506122b5828461226c565b91508190509392505050565b7f4d6178204e4654206c696d697420726561636865640000000000000000000000600082015250565b60006122f7601583611bed565b9150612302826122c1565b602082019050919050565b60006020820190508181036000830152612326816122ea565b9050919050565b7f4e487b7100000000000000000000000000000000000000000000000000000000600052601160045260246000fd5b600061236782611c94565b915061237283611c94565b925082820190508082111561238a5761238961232d565b5b92915050565b600081519050919050565b600082825260208201905092915050565b60006123b782612390565b6123c1818561239b565b93506123d1818560208601611bfe565b6123da81611c28565b840191505092915050565b60006080820190506123fa6000830187611d29565b6124076020830186611d29565b6124146040830185611e12565b818103606083015261242681846123ac565b905095945050505050565b60008151905061244081611b53565b92915050565b60006020828403121561245c5761245b611b1d565b5b600061246a84828501612431565b91505092915050565b60008190508160005260206000209050919050565b60006020601f8301049050919050565b600082821b905092915050565b6000600883026124d57fffffffffffffffffffffffffffffffffffffffffffffffffffffffffffffffff82612498565b6124df8683612498565b95508019841693508086168417925050509392505050565b6000819050919050565b600061251c61251761251284611c94565b6124f7565b611c94565b9050919050565b6000819050919050565b61253683612501565b61254a61254282612523565b8484546124a5565b825550505050565b600090565b61255f612552565b61256a81848461252d565b505050565b5b8181101561258e57612583600082612557565b600181019050612570565b5050565b601f8211156125d3576125a481612473565b6125ad84612488565b810160208510156125bc578190505b6125d06125c885612488565b83018261256f565b50505b505050565b600082821c905092915050565b60006125f6600019846008026125d8565b1980831691505092915050565b600061260f83836125e5565b9150826002028217905092915050565b61262882611be2565b67ffffffffffffffff81111561264157612640611edf565b5b61264b82546121f9565b612656828285612592565b600060209050601f8311600181146126895760008415612677578287015190505b6126818582612603565b8655506126e9565b601f19841661269786612473565b60005b828110156126bf5784890151825560018201915060208501945060208101905061269a565b868310156126dc57848901516126d8601f8916826125e5565b8355505b6001600288020188555050505b505050505050565b60006040820190506127066000830185611d29565b6127136020830184611e12565b9392505050565b7f4e487b7100000000000000000000000000000000000000000000000000000000600052601260045260246000fdfea2646970667358221220979c2cf75e6e8ad90e35119f0814f935d4ae85d1ca79c7619f88dd1a2b6b0c9064736f6c634300081c0033",
  "linkReferences": {},
  "deployedLinkReferences": {}
}